:100000000C94B8010C94FF010C94FF010C94FF01B7
:100010000C94FF010C94FF010C94FF010C94FF0160
:100020000C94FF010C94FF010C94E5300C94B83152
:100030000C94052C0C94FF010C94FF010C94FF010F
:100040000C94FF010C94FF010C94FF010C94FF0130
:100050000C94FF010C94972C0C94FF010C94FF015D
:100060000C94FF010C94FF010C94FF010C94FF0110
:100070000C94FF010C94FF010C94FF010C94FF0100
:100080000C94FF010C94FF010C94FF010C94FF01F0
:100090000C94FF010C94FF010C94FF010C94FF01E0
:1000A0000C94FF010C94FF010C94FF012B004B00FA
:1000B00052004E004A004900E000500051004F003D
:1000C0004D004C00E100E3002900E2002C431150F8
:1000D00029001A00080015001C002A00E000040096
:1000E000070009000B001D01E1001B0019000500BD
:1000F0002C42160129001400F300490028004C008E
:10010000E0002F0030004E004B001C01E1001350B6
:10011000C35C105001000000290000000000C35C17
:10012000AB00A900390053000000C45CAC00AA0079
:10013000005DFB5CDF5C005C1050A8000001010169
:100140000101010101010202020202020202020394
:100150000303030303030304040404040404050564
:100160000505050606060606070707070708080827
:1001700008090909090A0A0A0B0B0B0C0C0C0D0DD6
:100180000D0E0E0E0F0F0F1010111111121213136E
:100190001414151516161717181819191A1A1B1BE7
:1001A0001C1D1D1E1E1F2020212222232424252643
:1001B00026272829292A2B2C2D2D2E2F303132327B
:1001C000333435363738393A3B3C3D3E3F40414287
:1001D000434445464748494A4C4D4E4F505153546D
:1001E000555658595A5B5D5E5F6162646566686921
:1001F0006B6C6D6F7072737577787A7B7D7E8082A1
:10020000838587888A8C8E8F91939596989A9C9EE9
:10021000A0A2A3A5A7A9ABADAFB1B3B5B7BABCBEF9
:10022000C0C2C4C6C9CBCDCFD1D4D6D8DBDDDFE2C6
:10023000E4E7E9EBEEF0F3F5F8FAFDFF10037100E7
:100240007500690063006B00310037000000140383
:10025000790075007300680061006B006F00620038
:100260006F0000000403090409023B00020100A022
:10027000FA09040000010301010009211101000134
:100280002240000705810308000A09040100010358
:10029000000000092111010001227B0007058203F3
:1002A00020000A1201000200000008653206000169
:1002B000000102000105010902A10185020901A155
:1002C0000005091901290815002501950875018106
:1002D000020501093009311581257F9502750881D4
:1002E0000609381581257F950175088106050C0AD8
:1002F00038021581257F950175088106C0C005016A
:100300000980A101850319012AB700150126B7004C
:10031000950175108100C0050C0901A10185041922
:10032000012AA002150126A002950175108100C0C6
:1003300005010906A101050719E029E715002501B6
:10034000950875018102950175088101050719005D
:1003500029FF150026FF009506750881000508197C
:10036000012905950575019102950175039101C05B
:1003700011241FBECFEFDAE0DEBFCDBF04B603FE0F
:1003800027C080919B0390919C03A0919D03B09105
:100390009E038730904BA740B04BD1F410929B0343
:1003A00010929C0310929D0310929E0314BE84B77A
:1003B000877F84BF0FB6F894A8958091600088610C
:1003C00080936000109260000FBEE0E0F8E30995B2
:1003D00012E0A0E0B1E0E6EEFAE602C005900D9270
:1003E000A833B107D9F723E0A8E3B2E001C01D921A
:1003F000AB39B207E1F70E9411130C94E5340C9469
:100400000000809318030895809118030895FB015C
:10041000892B59F482818823D1F080911A0380FDC1
:1004200006C085E394E00E94BC0281E008950E942A
:100430000402882339F081E90E94E60380E00E94EB
:100440000102F3CF80E90E94E60381E0F8CF80E962
:100450000E94330481E90E943304E7CFCF93C62F73
:1004600081110BC082E00E942C08882349F08FE2A2
:10047000C11101C080E30E94790480E0CF9108950A
:1004800081E00E942C08882329F089EAC111F3CF6A
:100490008AEAF1CF83E00E942C08882329F08BEAB6
:1004A000C111E9CF8CEAE7CF89EFC111E4CF8AEF20
:1004B000E2CF8AE20E94602780E00C9401029C0156
:1004C0009A9581159F4118F5F901EE27F270832F57
:1004D0008170B90166277470A9014427587034FFF0
:1004E0000CC08295807FEF2B09F08062672B09F0AA
:1004F0008064452B69F080680895EF2B09F08260D5
:10050000672B09F08460452B19F08860089580E01E
:100510000895CF93DF93EB010E945F02FE01DF910C
:10052000CF910994CF93DF93EC01805E91090897F6
:1005300020F066E177E0209711F461E874E0CE01E5
:100540000E9489028C2FDF91CF910C94E603CF9308
:10055000DF93EC010E943304CE01805E910908977D
:1005600020F06DE177E0209711F468E874E0CE01A7
:10057000DF91CF910C948902CF93DF93D82FC92FAD
:100580000E9492028D2F9C2FDF91CF910C94A70295
:1005900081E008950C94070208950C94CC021F93F7
:1005A000CF93DF9300D000D00F92CDB7DEB7498351
:1005B0005A836B8330913A0289819A8131111DC02F
:1005C0006623B9F02223A9F00E94D309182F682FBF
:1005D00089819A810E947C0969817A81812F0F909B
:1005E0000F900F900F900F90DF91CF911F910C946F
:1005F0008B100E94AA09182FEFCF0E94D30969819E
:100600007A81EDCFFC01262F408151816281738177
:1006100084810C94CF0281E00895CF93DF93D82F8B
:10062000C92F60E00E9402036D2F7C2FDF91CF91D4
:100630000C94CD020E9498110E9493030E94ED2613
:100640000C94D1110C94D41108950E943A070E9481
:1006500024032FEF84E39CE0215080409040E1F799
:1006600000C000000C94BB2C0F931F93CF93DF931B
:100670008C0161E00E940203EC01B8010E94CA02F1
:100680008823D9F1B801CE010E94A3298823A9F1BA
:10069000B801CE010E94F829882379F1B801CE0172
:1006A0000E94D02A882349F1B801CE010E94422835
:1006B000882319F1F8018281882361F0CB35FDE5AB
:1006C000DF0721F170F4C115ECE5DE07A1F0CF3DA5
:1006D000DC45C9F0C801DF91CF911F910F910C94B7
:1006E000C802CC358DE5D807A1F0CD35DD4591F7B1
:1006F0000E94300DEFCF0E94250380E0DF91CF9163
:100700001F910F9108950E949C0EF7CF0E94390D02
:10071000E1CF0E943C0DDECF08950C948C0381E064
:1007200008950C948F030895CF93C82F0E948D03D2
:100730008C2FCF910C949103EF92FF920F931F9304
:10074000CF93DF93CDB7DEB72B970FB6F894DEBF0C
:100750000FBECDBF042F4F83152F588769877A8727
:100760008B87EA84FB8461110E94610D1E8285E003
:10077000FE013796DE01119601900D928A95E1F700
:10078000EF28A9F449815A816B817C818D819E81FA
:100790000E945F0C2B960FB6F894DEBF0FBECDBF44
:1007A000DF91CF911F910F91FF90EF90089510234B
:1007B0001F3F41F3CE0101960E940B038111E2CF4E
:1007C000E9CFFC01808191810C94150ACF93C82F49
:1007D000882309F446C08CEF8C0F813AA0F46C2F6B
:1007E00080914C0190914D010E94662B882329F045
:1007F0008C2F0E94000D0E94840D8C2F0E94F90CFA
:10080000CF910C94840D80E28C0F883048F4C7702F
:1008100081E001C0880FCA95EAF70E94420DF0CF2F
:100820008BE58C0F833038F42C2F2452330BC90105
:10083000CF910C94282BE8E5EC0FE73150F4F0E071
:10084000EE0FFF1FE659FE4F80819181CF910C94EE
:100850003E2BCD3E30F08C2F0E949F13CF910C94F5
:100860006114CF910895882361F19CEF980F913A1C
:1008700020F40E94000D0C94840D90E2980F9830A3
:1008800050F4877091E001C0990F8A95EAF7892F9B
:100890000E94480DF0CF9BE5980F933020F490E034
:1008A00080E00C94282B98E5980F973120F490E085
:1008B00080E00C943E2B8D3E20F00E94E8130C94B7
:1008C000611408951F93CF93DF93182FEB010E94BB
:1008D000E603209731F4812FDF91CF911F910C9483
:1008E00033048FE99FE00197F1F700C000002197E2
:1008F000F0CF70E060E0893311F460E570E00C94B3
:100900006204882321F00E94420D0C94840D089506
:10091000882321F00E94480D0C94840D0895AF9215
:10092000BF92CF92DF92EF92FF920F931F93CF93DC
:10093000DF9300D000D00F92CDB7DEB76C016D838E
:100940007983FC011281058102950F700E94170DB9
:10095000E82E8823A1F0E12E112389F08981807F80
:10096000803429F08D81805EE12C883040F082E077
:100970000E94D50D0E94170D91E0E82EE92689818D
:1009800082958F70A82EB12C8C30A8F5F501E95115
:10099000FB4C0C94B43309810F70F981F07F11F096
:1009A0000295007F1123B1F0002361F08D81805EFC
:1009B000883018F01D81111109C0802F0E94420D4E
:1009C0000E94840D8D810E94E60315C0802F0E9435
:1009D000530DF6CF8D810E943304002361F08D8189
:1009E000805E883018F01D81111133C0802F0E9465
:1009F000480D0E94840D98E0A91AB108E4E0AE16F3
:100A0000B10420F40E94FF2A0E949403EE2009F40E
:100A1000BEC10E94130D80FDBAC1F60112820E9470
:100A20000D0D0E946C08C6010E94EE060E940D0D7D
:100A30000F900F900F900F900F90DF91CF911F911B
:100A40000F91FF90EF90DF90CF90BF90AF900C94FC
:100A50009D08802F0E94590DCCCF29812F70F22E36
:100A60003981307F303219F0F29480EFF8228D8195
:100A7000882369F0813049F1112391F1002351F16C
:100A8000F601858180FF9ECF8F70858323C011235F
:100A900081F0011106C00E94670D8F290E94810418
:100AA000AACF0130C1F70E94670D8F290E946D0DFA
:100AB000A2CF011106C00E947A0D8F2D0E948804DA
:100AC0009ACF013009F497CFF6CF112329F00630E1
:100AD00008F091CF8F2DE2CF053008F08CCFEDCF0D
:100AE000002359F30D81093349F41FEF27EE33E05A
:100AF000115020403040E1F700C000008D810E947D
:100B0000330479CF898186958695837069F0813029
:100B100009F071CF8D8199819370111102C090E01D
:100B200080E00E943E2B67CF8D81998193701111D7
:100B300002C090E080E00E94282B5DCF8D811123C0
:100B400029F00E949F130E94611455CF0E94E81360
:100B5000FACF8981837009F050C011114CCF2D81DB
:100B6000229526952770220F220F4D814F7050E05D
:100B700070E060E0022E04C0440F551F661F771F0F
:100B80000A94D2F70D8180E090E0DC0104FF0FC0F1
:100B90008FE090E0A0E0B0E004C0880F991FAA1F8A
:100BA000BB1F2A95D2F780959095A095B095198195
:100BB0001695169513701D838C019D01042B152B22
:100BC000262B372B09831A832B833C831D81698154
:100BD0007A818B819C81123051F0133059F01130A1
:100BE00019F00E94C70707CF0E949F0704CF0E94F9
:100BF000EF0701CF0E949D07FECE112309F448C0E4
:100C0000098100FFF8CE2D81229526952770220FAD
:100C1000220F4D814F7050E070E060E0022E04C062
:100C2000440F551F661F771F0A94D2F70D8180E08D
:100C300090E0DC0104FF0FC08FE090E0A0E0B0E0A6
:100C400004C0880F991FAA1FBB1F2A95D2F7809551
:100C50009095A095B09519811695169513701D83E2
:100C60008C019D01042B152B262B372B09831A830E
:100C70002B833C831D8169817A818B819C81123019
:100C800071F0133079F0113039F00E942B09B3CE96
:100C9000198111FFB0CEB7CF0E940309ACCE0E94DC
:100CA0005309A9CE0E941B08A6CE09810F700983A3
:100CB000112329F0802F0E946C088D81EFCE8D8149
:100CC0000E94880489810E949D0895CE2D81223F33
:100CD000A1F160F4203FE1F0213F41F1112309F43B
:100CE00045C001116FCE89818F7124C03D81333F92
:100CF00049F1343F99F7112379F109810F71098383
:100D0000802F0E946C0863E089810E94BA0D73CE27
:100D1000112341F0053008F06ECE89818F710E9459
:100D2000D20869CE063008F066CEF7CF89818F7180
:100D3000112349F20E946C085ECE89818F711123C4
:100D4000C9F3C1CF112329F089818F710E9447080F
:100D500052CE0E9427084FCE81E00E94D50D02306E
:100D600008F449CE82E00E94D50D45CE002361F003
:100D70001D81193309F0C2CE2FEF37EE83E02150E9
:100D800030408040E1F7B8CE89818F719CCF0F90C1
:100D90000F900F900F900F90DF91CF911F910F91B7
:100DA000FF90EF90DF90CF90BF90AF9008950F939A
:100DB0001F93CF93DF93EC01688179818A810E9430
:100DC000210A8C010E947B090E949C07B801CE0178
:100DD000DF91CF911F910F910C948F04CF93DF93EC
:100DE000EC01988189812B813C81232B19F0892387
:100DF0008F3F59F4DF91CF910895CE010E94D7061D
:100E0000CE01DF91CF910C940D03CE010E943403EB
:100E10008111F3CF0E94170D882361F38A81882303
:100E200049F382E0DF91CF910C94D50D882321F016
:100E30000E94530D0C94840D0895882321F00E9484
:100E4000590D0C94840D089590E080E00E94282BA9
:100E500090E080E00E943E2B0E94610D0E94640D94
:100E60000E94840D0E948C150C9461140E94070D41
:100E70000C9424070E94500D0C943607282F892FBC
:100E800082958F70903C80F48A30B0F4843020F4E6
:100E9000823090F480E008958630E1F781E0283ECA
:100EA00088F0213FB9F70EC08C3011F08F3091F7E8
:100EB00093FB882780F9089581E0203F39F018F4EA
:100EC000283E40F70895243F29F7FCCF0895FC0100
:100ED000808191810E94150A0C943E07CF93DF9385
:100EE00000D000D00F92CDB7DEB70F900F900F90CB
:100EF0000F900F90DF91CF910895CF93DF9300D0A3
:100F000000D000D0CDB7DEB726960FB6F894DEBF7E
:100F10000FBECDBFDF91CF91089508950C948D073A
:100F20000E948E0760934E0270934F02809350028E
:100F3000909351020C94240708950C949007CF933A
:100F4000DF9300D000D0CDB7DEB769837A838B837F
:100F50009C8380914E0290914F02A0915002B091DB
:100F6000510229813A814B815C81282B392B4A2BF4
:100F70005B2B29833A834B835C83CA01B9010F90B1
:100F80000F900F900F90DF91CF910C949007CF931B
:100F9000DF9300D000D0CDB7DEB769837A838B832F
:100FA0009C8380914E0290914F02A0915002B0918B
:100FB000510229813A814B815C81282339234A23BC
:100FC0005B2329833A834B835C83CA01B9010F9069
:100FD0000F900F900F90DF91CF910C949007CF93CB
:100FE000DF9300D000D0CDB7DEB769837A838B83DF
:100FF0009C8380914E0290914F02A0915002B0913B
:10100000510229813A814B815C81282739274A275F
:101010005B2729833A834B835C83CA01B9010F9014
:101020000F900F900F90DF91CF910C9490070C943C
:101030008D070C9417080E94190860934A02709358
:101040004B0280934C0290934D020C94240760E075
:1010500070E0CB010C941B08282F80914A029091DC
:101060004B02A0914C02B0914D020097A105B10531
:1010700029F481E0222351F080E0089504C0B69560
:10108000A795979587952A95D2F7817008950F9324
:101090001F93CF93DF9300D000D0CDB7DEB741E0F0
:1010A00050E060E070E08A019B0104C0000F111F56
:1010B000221F331F8A95D2F709831A832B833C831F
:1010C000C901B8010F900F900F900F90DF91CF9151
:1010D0001F910F910C941B080F931F93CF93DF93D5
:1010E00000D000D0CDB7DEB741E050E060E070E066
:1010F00004C0440F551F661F771F8A95D2F7809151
:101100004A0290914B02A0914C02B0914D028A018B
:101110009B01082B192B2A2B3B2B09831A832B832A
:101120003C83C901B8010F900F900F900F90DF9191
:10113000CF911F910F910C941B080F931F93CF9386
:10114000DF9300D000D0CDB7DEB741E050E060E0E3
:1011500070E004C0440F551F661F771F8A95D2F7B1
:10116000409550956095709580914A0290914B0200
:10117000A0914C02B0914D028A019B0108231923D2
:101180002A233B2309831A832B833C83C901B8019B
:101190000F900F900F900F90DF91CF911F910F91B3
:1011A0000C941B080F931F93CF93DF9300D000D0B4
:1011B000CDB7DEB741E050E060E070E004C0440F1E
:1011C000551F661F771F8A95D2F780914A0290912A
:1011D0004B02A0914C02B0914D028A019B0108275D
:1011E00019272A273B2709831A832B833C83C901AC
:1011F000B8010F900F900F900F90DF91CF911F913A
:101200000F910C941B08CF93DF9300D000D0CDB783
:10121000DEB769837A838B839C8380914A029091A5
:101220004B02A0914C02B0914D0229813A814B8131
:101230005C81282B392B4A2B5B2B29833A834B83E8
:101240005C83CA01B9010F900F900F900F90DF914E
:10125000CF910C941B08CF93DF9300D000D0CDB773
:10126000DEB769837A838B839C8380914A02909155
:101270004B02A0914C02B0914D0229813A814B81E1
:101280005C81282339234A235B2329833A834B83B8
:101290005C83CA01B9010F900F900F900F90DF91FE
:1012A000CF910C941B08CF93DF9300D000D0CDB723
:1012B000DEB769837A838B839C8380914A02909105
:1012C0004B02A0914C02B0914D0229813A814B8191
:1012D0005C81282739274A275B2729833A834B8358
:1012E0005C83CA01B9010F900F900F900F90DF91AE
:1012F000CF910C941B080895E92FEE0FE90FEE0F24
:10130000E80F8E2F877041E001C0440F8A95EAF7FD
:10131000E695E695E69585E0E89FF0011124E55C09
:10132000FD4F30E020E070E05191DF011197CB01DB
:10133000022E02C0969587950A94E2F781708195F6
:101340008527842385278C932F5F3F4F25303105D8
:1013500059F70895E92FEE0FE90FEE0FE80F9E2FD2
:101360009770E695E695E69585E0E89FF0011124F3
:10137000E55CFD4F50E040E080E0219130E0092E37
:1013800002C0369527950A94E2F721703327042E80
:1013900001C0220F0A94EAF7822B4F5F5F4F45305E
:1013A000510559F70895BF92CF92DF92EF92FF92C5
:1013B0000F931F93CF93DF938C01C0904A02D0907C
:1013C0004B02E0904C02F0904D0280914E029091C1
:1013D0004F02A0915002B0915102C82AD92AEA2A9C
:1013E000FB2ACFE1D0E0BC2ED701C6010C2E04C0F1
:1013F000B695A795979587950A94D2F780FD0EC06C
:10140000219788F7B12C8B2DDF91CF911F910F91F0
:10141000FF90EF90DF90CF90BF900895B8018C2F90
:101420000E949F10019761F3EECFCF93DF93D82FE7
:10143000C92F0E94D3096D2F7C2FDF91CF910C947F
:101440009F101F93CF93DF93162FD72F90913A02BF
:10145000992339F0862F972FDF91CF911F910C940C
:10146000150A882391F0862F972F0E94D309C82F41
:10147000682F812F9D2F0E947C09612F7D2F8C2F3B
:10148000DF91CF911F910C949F10862F972F0E9470
:10149000AA09C82FF2CF1F93CF93DF93E091520296
:1014A00016E0809153028E1304C0DF91CF911F91FB
:1014B0000895CE2FD0E01E9FF0011124EC5AFD4F6D
:1014C0004081518162817381848195810E947D0771
:1014D0002196EC2FE770E5CF409184025091850270
:1014E00060918602709187028091880290918902B2
:1014F0000C947D071F93CF93DF9380918902807FA7
:10150000A9F480918602882389F080915202C091CB
:1015100053027091840260918502A0918702B0917C
:101520008802D62FD72316E0C81304C0DF91CF91CD
:101530001F91089590E0109711F0DF3F19F4019684
:101540008770F2CF189F9001199F300D1124F90177
:10155000EC5AFD4F41816413F2CF40814713EFCF26
:1015600042814111ECCF438154814A1B5B0B483CC3
:10157000510528F7809189028F70806180938902DC
:10158000F901E75AFD4F80818F708061808384E884
:1015900092E00E94EE06DF91CF911F910C944B0ACE
:1015A000AF92BF92CF92DF92EF92FF920F931F9371
:1015B000CF93DF93CDB7DEB72B970FB6F894DEBF8E
:1015C0000FBECDBF8C0185E0F801DE0117960190BA
:1015D0000D928A95E1F7F801E280C380D48084E817
:1015E000A82E82E0B82E209184029091850240912D
:1015F0008702509188024115510529F0892F8223D5
:101600008F3F09F049C1EE2009F455C1C8010E947D
:101610006707F82E882309F44EC186E0F801A4E894
:10162000B2E001900D928A95E1F784E892E00E9481
:10163000E1030E947A0A00C180918902682F607FCD
:10164000483C510508F0A8C0F80131816111E0C0A3
:10165000FE2C391325C09081921322C0E11020C0C6
:101660008F708061809389020E946C0A84E892E006
:101670000E94EE0680918902F80185838F2D2B96BA
:101680000FB6F894DEBF0FBECDBFDF91CF911F9193
:101690000F91FF90EF90DF90CF90BF90AF900895A3
:1016A0002F81CD2829F0832F82238F3F09F0ADC0F1
:1016B00080E0F82FF170DF2EE0915202409153024A
:1016C00056E080FD1CC0EE20C9F280918902816045
:1016D00080938902F12CD2CF8E2F90E05E9FF00193
:1016E0001124EC5AFD4F6181361306C060816213EC
:1016F00003C06281E612E7CF0196E82FE770E4139A
:10170000EBCF8F8198850E94150A292F22952F7083
:10171000903260F0225F2F70223078F49F7051F089
:10172000F8019581907F31F4D12C0AC09F7011F09F
:101730008823D1F3805E8830B8F3C8010E94EE069A
:10174000FD2C9CCFC8010E946707882309F4B3C011
:10175000EE2009F4B0C080918902803270F02091AF
:101760008402309185023A8329831B82DD82CC82F8
:101770008E83CE0101960E94EE0686E0F801A4E871
:10178000B2E001900D928A95E1F70E947A0A0E94D8
:101790006C0AFF24F39472CF611151C04F815885B8
:1017A00069857A858B850E946E0784E892E00E94A5
:1017B000EE0686E0F50111928A95E9F70E946C0A1F
:1017C00089CF86E0F801A4E8B2E001900D928A95F5
:1017D000E1F754CFC8010E9467078111CECF8091F5
:1017E0008902816080938902C8010E94EE0646CF7B
:1017F0004F81588569857A858B850E946E0786E0C2
:10180000F50111928A95E9F717C081E08E2551CF35
:10181000391398CFF8019081921394CFE11092CFB1
:101820008583C8010E94EE0686E0F801A4E8B2E0D4
:1018300001900D928A95E1F70E946C0A1FCFF80182
:10184000318193137FCFF801908192137BCFE11008
:1018500079CF8583C8010E94EE0686E0F5011192DA
:101860008A95E9F70BCFF80181819813B3CFF8017E
:1018700080818213AFCF8091890280FDA2CF982F03
:10188000907F09F49ECF8583903F59F2982F907FE7
:10189000905F8F70892BC4CFF0908602B601641BD5
:1018A000750BAB01F110C8CE483C510508F0A0CF34
:1018B000FE2CE110D8CFC8010E94EE066ACF1F931C
:1018C000CF93DF93CDB7DEB72C970FB6F894DEBF7A
:1018D0000FBECDBF4F83588769877A878B879C87D8
:1018E000CE0107960E94D00A882369F08A859B85DD
:1018F000892B39F058854F81852F84238F3F09F03C
:1019000071C016E05FC086E0FE013796DE011196D9
:1019100001900D928A95E1F78F819885209153026D
:10192000409152026A857B85672B59F389238F3F4B
:1019300041F330E0C90101968770992748171906CD
:1019400071F40E943A07109253021092520286E0FC
:10195000E4E8F2E0DF011D928A95E9F7D2CF96E044
:10196000929FD001939FB00D1124AC5ABD4FFE0140
:10197000319601900D929A95E1F7809353020E945F
:101980004B0ABFCF819FC00111248C5A9D4F0E94EA
:10199000D00A8823E9F0E09152021E9FF001112441
:1019A000EC5AFD4F40815181628173818481958120
:1019B0000E947D078091520290E0019687709927DE
:1019C0008093520280915202909153028913DACF90
:1019D0002C960FB6F894DEBF0FBECDBFDF91CF912E
:1019E0001F91089569857A858B859C850E947D0766
:1019F00088CF682F80914C0190914D010C94A02BC1
:101A0000682F80914C0190914D010C94A22B8091F4
:101A10004C0190914D010C94A42B80918A028595E4
:101A200085958595089580918A0287700895909193
:101A30008A02977081E009F480E0089590911A037A
:101A400092FB222720F9281751F080FB92F99093FE
:101A50001A038091190390911A030C94180E08959B
:101A600080911A0382FB882780F991E089270C94E2
:101A70001E0D81E00C941E0D80E00C941E0D8091D3
:101A80009602089590919602982B9093960208954D
:101A9000982F9095809196028923809396020895BD
:101AA00010929602089590919502982B909395022A
:101AB0000895982F9095809195028923809395029F
:101AC00008951092950208951092940208958091BD
:101AD0008B02089508950C946A0D90911A0392FD5B
:101AE00008C090918B02981721F080938B020C9480
:101AF0006B0D089580918B02882329F010928B0240
:101B000080E00C946B0D0895E0914C01F0914D0133
:101B1000809196028083E0914C01F0914D0180818B
:101B200090919502892B8083E0914C01F0914D01B9
:101B3000808190919402892B808390918B029923CC
:101B400081F0E0914C01F0914D018081892B8083DF
:101B500080914C0190914D010E94542B81110E9463
:101B60007A0D80914C0190914D010C940E2B0895AB
:101B70000C94B70D90911A0392FD10C098E0899FC4
:101B800090011124622B60938A020E946C0880915C
:101B90008A028595859585950C94B80D0C946C08F2
:101BA00010928A0280E00C94B80D90918A02809580
:101BB000892380938A02282F277039F4282F082E32
:101BC000000C330B9217130621F490911A0392FF25
:101BD00007C08595859585950E949D080C94D00D2C
:101BE00008956FEF7FEF90E080E00C94BD3490E0BB
:101BF00080E00E9489349C0181E0293E3E4F09F03B
:101C000080E0089582E090E00C94813483E090E0DD
:101C10000C948134CF9384E090E00E948134C82FEB
:101C200082E290E00E948134982F8C2FCF9108950A
:101C3000CF93682FC92F84E090E00E949F346C2FCF
:101C400082E290E0CF910C949F34AB01BC018FE015
:101C500090E00C94B134AB01BC0183E190E00C94B2
:101C6000B13460E070E0CB010C942B0E60E070E0CA
:101C7000CB010E94250E0C94310E69EE7EEF90E0B0
:101C800080E00E94BD3460E082E090E00E949F34DA
:101C900060E083E090E00E949F3410924E02109228
:101CA0004F02109250021092510260E084E090E0E6
:101CB0000E949F3460E082E290E00E949F3460E0E6
:101CC00085E090E00E949F3460E086E090E00E9412
:101CD0009F346FEF87E090E00E949F3440E050E037
:101CE000BA0188E090E00E94B13460E08DE090E0BD
:101CF0000E949F3440E050E0BA0188E190E00E94E9
:101D0000B13460E087E190E00E949F3440E050E011
:101D1000BA018CE190E00E94B13470E060E080E2B2
:101D200090E00E94BD3440E050E0BA0188E190E0CC
:101D30000E94B1340C94360E0C943D0E682F8EE048
:101D400090E00C949F340E94412C6093A302709306
:101D5000A4028093A5029093A60260939F027093C1
:101D6000A0028093A1029093A20208950E94412CA8
:101D70006093A3027093A4028093A5029093A6029D
:101D800060939B0270939C0280939D0290939E02AD
:101D9000089585B7806885BF85B7806885BF089539
:101DA000089508950C94D00E0C9459020E94C90E07
:101DB0008EE791E10E94CC2C0E94D10E0C94D20EA1
:101DC00081E008950C94E00E089508950E94E40EB9
:101DD0000C94E50E0E942C2C0E9482120E94DE2898
:101DE0000C94D40EAF92BF92CF92DF92EF92FF92FB
:101DF0000F931F93CF93DF9300D000D00F92CDB7F6
:101E0000DEB70E94961281110E94A30E88E9A82EC7
:101E100082E0B82E10E000E0C02E802F0E94D61184
:101E2000F82EF501E1905F01E81216C00F5F1F4F19
:101E30000330110589F78FEF89838A831B820E9403
:101E4000352C8160782F9D838C8349815A816B81E9
:101E5000892F0E949C0332C08091A70281FD0E94BD
:101E6000DC118E2D8F25E12CDD24D394982F9D211C
:101E700009F448C00E94E20EFD20BB24B394F11087
:101E800001C0B12C882379F0E982CA82BB820E940A
:101E9000352C8160782F9D838C8349815A816B8199
:101EA000892F0E949C03F801E856FD4F80818D2503
:101EB00080834B2D6E2D8C2D0E94F8230E940F26BF
:101EC0000E94EE2881110E94B60E0E947B140E948F
:101ED000FF2A909197028917D9F00E94FF2A8093D8
:101EE00097020F900F900F900F900F90DF91CF916E
:101EF0001F910F91FF90EF90DF90CF90BF90AF9028
:101F00000C949403E394DD0CF6E0EF12AFCF8ECF88
:101F10000F900F900F900F900F90DF91CF911F9126
:101F20000F91FF90EF90DF90CF90BF90AF9008950A
:101F3000CF93DF930E94A310EC01811522E5920755
:101F400008F05AC0811531E5930708F0B7C0883E04
:101F50009105E8F4803E910570F4883A910578F493
:101F6000853A910508F099C08130910521F00497D8
:101F7000813A910548F4CE01DF91CF910895885AB6
:101F80009109479708F48CC0D0E0C0E0F4CFC115A8
:101F900080E5D807A0F4C11590E4D90708F08BC0FC
:101FA000CF3FD10509F028F4CD3ED10568F3D065C7
:101FB000E2CFCE019A9581159F41E8F2E5CF9E01CF
:101FC000F4E036952795FA95E1F723708C2F8695E6
:101FD0008695837030E2839FC0011124922BC370D9
:101FE00021E030E002C0220F331FCA95E2F7822BB6
:101FF000932BEC01DC68BFCFC11586E5D80730F51F
:10200000C11595E5D90708F06DC0C11524E5D207C3
:10201000C0F48C2F869586959E0123703327C115B9
:10202000D34508F050C0C1E0D0E002C0CC0FDD1FA6
:102030002A95E2F720E2829FC0011124C82BD92BF8
:10204000D9CFDC2FCC27C46FD06A95CFC1153AE524
:10205000D30788F4C11589E5D80708F04EC0CE0132
:1020600098558F3F910511F008F08ECFDC2FCC27CB
:10207000C06FD06A80CFCE0190568115904208F093
:1020800083CF8D2F8F710E943B1190E0982F88276E
:1020900088279F718C2BEC012EC0A497D0646BCF46
:1020A000C85AD0E0CC0FDD1FC856DE4F0990D8814A
:1020B000C02DD46460CFDF70D06A5DCFD82FCC271D
:1020C000C16FD06A58CFC1E0D0E002C0CC0FDD1F95
:1020D0002A95E2F730E2839FC0011124C82BD92B47
:1020E000DA6849CF8C2F0E943B11C82FD0E0DC2F3B
:1020F000CC27CC27DF71D0623ECF8C2F8F700E940F
:102100003B1134E0D695C7953A95E1F7CF709C2FF7
:10211000EC01D06930CF972F70E026E0929F600DE0
:10212000711D1124FB0192E1899FE00DF11D112425
:10213000EE0FFF1FE455FF4F8591949108950E9483
:102140008B100C94980F803E910599F1C8F481335F
:10215000910509F476C048F48932910509F46AC002
:102160008A32910509F474C0089589339105D1F03C
:1021700082389105B9F08533910509F454C008956A
:10218000843E910599F138F4823E9105F9F0833E41
:10219000910509F10895863E910599F1873E9105D3
:1021A000B9F10895209119032370A1F080EE90E019
:1021B00008952091190320FD52C030911A0330FF79
:1021C00009C024FF4FC090E080E004C020911903B3
:1021D00022FDF7CF08952091190322FD46C03091CA
:1021E0001A0330FDE3CF24FFF5CFEDCF20911A0382
:1021F00021FFF0CF8091190384FDE5CF87EE90E0B9
:1022000008952091190323FFE5CF24FDDCCFF6CFFD
:102210002091190323FD2CC030911A0331FFE3CF25
:1022200084EE90E008952091190325FFD3CF89E231
:1022300090E008952091190325FFCCCF85E390E02D
:1022400008952091190326FFC5CF8AE290E00895F2
:102250002091190326FFBECF81E390E0089589E322
:1022600090E0089583EE90E0089582EE90E0089566
:1022700086EE90E008959091190392FF06C0282FF2
:1022800028712830F9F4877F846093FF06C0282FD7
:1022900028712831F1F4877E846120911A0320FF90
:1022A00006C0382F38713830D9F4877F816021FF1C
:1022B00006C0282F28712831D1F4877E816194FDD2
:1022C000877E0895282F24712430F9F68B7F88604B
:1022D000DCCF282F2471243101F78B7E8861DDCF7C
:1022E000382F3171313019F78E7F8860E0CF282F79
:1022F0002171213121F78E7E8861E1CF80E0089540
:102300000C94F10D0E9496128FE39CE90197F1F76E
:1023100000C000000E94961280E00E94D61180FF4B
:1023200004C00E9480110C94BB2C08950C9482115F
:10233000CF93DF9300D000D0CDB7DEB70E94F70D6A
:10234000811102C00E949C0E0E94020E8093A7027F
:102350000E940A0E90931A03809319030E9496110B
:102360000E94060E282F30E050E040E0CA01B9017B
:102370000E949D0780914A0290914B02A0914C02CD
:10238000B0914D0289839A83AB83BC83BC01CD019C
:102390000F900F900F900F90DF91CF910C94190830
:1023A00008950C94D01108950C94D311E82FF0E007
:1023B000E25EFC4F80810895089580EA8A95F1F7E6
:1023C000089500C008950C94DD11F894E82FE2956B
:1023D000EF70F0E041A18F7021E030E0B90102C060
:1023E000660F771F8A95E2F7CB01962F909594237D
:1023F00091A392A1892B82A378940895CF93DF9320
:1024000084EF0E94E51183E30E94E51186E30E94B8
:10241000E511C6ECD1E089918F3F11F00E94E511E2
:1024200081E0CC3CD807B9F7DF91CF910895CF92E6
:10243000DF92EF92FF920F931F93CF93DF93EC0104
:10244000D62E062F10E0C80184539E4F7C01FC015C
:1024500080818F3F09F44BC0F894E82FE295EF702C
:10246000F0E091A18F7021E030E001C0220F8A9549
:10247000EAF7892F822B81A382A12095282322A30A
:1024800078940E94E111E6ECF1E030E020E0C12C0C
:1024900051E041914F3FA1F1A42FA295AF70A05EF2
:1024A000B0E08C9190E04F7002C0959587954A9569
:1024B000E2F780FD25C0952F022E01C0990F0A94E6
:1024C000EAF7C92A2F5F3F4F2630310511F7F70190
:1024D00080818F3F11F00E94E51161E0C11001C0C1
:1024E00060E08D2D0E94E311C00FD11FC882DF91E3
:1024F000CF911F910F91FF90EF90DF90CF900895B3
:1025000090E0DFCF0E94FE11ABE1B3E01C92EEE160
:10251000F3E0108211961C921197118212961C9270
:10252000128283E00E94DA120C941A031F93CF9355
:10253000DF9300D00F92CDB7DEB71A8219821B82CB
:1025400060E0CE0101960E94171261E0CE01019673
:102550000E94171262E0CE0101960E94171243E01A
:1025600050E0BE016F5F7F4F8BE193E00E945434D7
:102570009C0111E0892B09F410E0232B49F089819B
:102580009A81AB8180931B0390931C03A0931D033E
:10259000212F43E06EE173E08BE193E00E94DB12B8
:1025A0000E942203812F0F900F900F90DF91CF9107
:1025B0001F9108950895FF920F931F93CF93DF9378
:1025C000F82E092F162FD72FC42F222349F081E090
:1025D0008093AA020E94352C9093A9028093A802AE
:1025E0008091AA028823A1F08091A8029091A9026B
:1025F0000E94612C059760F0EF2DF02FA12FBD2FC9
:10260000CF018C0F911DE817F90741F41092AA022F
:10261000DF91CF911F910F91FF90089521912D93FC
:10262000F2CF0E94AC2B0E942A2E0E94432E0E94C1
:10263000552E0E94E60EFBCF8091B10280FF12C0A2
:102640006091530185E0689FB001112475956795ED
:102650007595679560387105A8F561157105A1F14B
:10266000862F089581FF09C06091530185E0689F1E
:10267000B001112475956795EDCF6091530182FDEE
:102680000AC02091B0022223D1F0909152016091B2
:102690005301291728F085E0689FB0011124DACF93
:1026A000269F9001112485E0829FA001839F500DF9
:1026B0001124692F70E0CA010E948133CBCF65E0FD
:1026C00070E0CECF8FE7089581E008958091B10248
:1026D00080FF0CC060914F0170E07595679575950E
:1026E00067956115710549F1862F089581FF06C030
:1026F00060914F0170E075956795F3CF60914F0140
:1027000082FD0BC09091AF029923A1F060914E0120
:1027100080914F01961738F0682F70E0603871058E
:1027200000F38FE70895899FC001112470E00E9493
:102730008133F4CF61E070E0D7CF81E00895E3E129
:10274000E80FE331E0F5F0E0ED50FB4C0C94B433CE
:102750000E941C1381958093B50208950E941C135A
:10276000FACF0E941C1381958093B40208950E94B1
:102770001C13FACF0E9466138093B60208950E943C
:1027800066138195F9CF0E94661381958093B702F5
:1027900008950E946613FACF815F990B21E030E023
:1027A00001C0220F8A95EAF78091B302822B8093B1
:1027B000B30208958091B10281608093B1020895BF
:1027C0008091B1028260F9CF8091B1028460F5CF2F
:1027D0004091B4028D3E59F48091B50287FF0DC03F
:1027E0001092B50241110BC01092B00208C08E3E8B
:1027F00081F48091B50218169CF3442381F08091F6
:10280000B6029091B702892B09F05AC01092AF021C
:1028100008958F3E49F447FFF0CF1092B4028091A3
:10282000B5028111ECCFE0CF803F19F41416ACF360
:10283000E4CF9091B602893F29F41916F4F610926C
:10284000B602DBCF8A3F19F497FFD7CFF8CF90912C
:10285000B7028B3F29F497FFD0CF1092B702CDCFAC
:102860008C3F19F41916CCF3C8CF9FE0980F98301D
:1028700090F4815F990B21E030E0B90102C0660F4E
:10288000771F8A95E2F7CB0180959091B302892357
:102890008093B302B2CF8D3F31F48091B1028E7F2D
:1028A0008093B102AACF8E3F21F48091B1028D7F37
:1028B000F7CF8F3F09F0A1CF8091B1028B7FF0CF8E
:1028C00008950E94352C2091B4023091B502232B3B
:1028D00021F08093AD029093AE022091B602309128
:1028E000B702232B21F08093AB029093AC0282EBD2
:1028F00092E00C94192BCF92DF92EF92FF920F93FC
:102900001F93CF93DF9300D000D000D0CDB7DEB7B8
:1029100026E0E2EBF2E0CE010196DC0101900D929F
:102920002A95E1F7C090B402D090B502E090B602CB
:10293000F090B7021092B4021092B5021092B60253
:102940001092B7022C2D2D298C0191F08091AD02AF
:102950009091AE020E94612C9C018091B00288236C
:1029600009F440C0909154019217130608F448C02E
:102970008E2D8F2991F08091AB029091AC020E9434
:10298000612C9C018091AF02882309F478C090915A
:1029900050019217130608F480C08091B402909100
:1029A000B502892B9091B602892B9091B702892BA1
:1029B00011F00E94611486E0F801A2EBB2E00190F0
:1029C0000D928A95E1F726960FB6F894DEBF0FBEFA
:1029D000CDBFDF91CF911F910F91FF90EF90DF90CE
:1029E000CF900895409155019AE0499FA00111248C
:1029F0004217530708F0BCCF8F5F8093B00202C02C
:102A00008F3FD1F7CC2059F00E941C139FEF1C146C
:102A10000CF491E0899F802D11248093B402DD2075
:102A200059F00E941C139FEF1D140CF491E0899F34
:102A3000802D11248093B5023091B402332309F420
:102A400097CF2091B502222309F492CF45EB3403AE
:102A5000C0011124992359F09093B40245EB24034B
:102A600090011124332339F03093B50281CF81E0F6
:102A70008093B402F3CF81E08093B50279CF409187
:102A800051019AE0499FA00111244217530708F011
:102A900084CF8F5F8093AF0202C08F3FD1F7EE20CB
:102AA00059F00E9466139FEF1E140CF491E0899F69
:102AB000802D11248093B602FF2059F00E946613E6
:102AC0009FEF1F140CF491E0899F802D11248093B7
:102AD000B7023091B6022091B702332309F45DCFDB
:102AE000222309F45ACF45EB3403C0011124992362
:102AF00059F09093B60245EB24039001112433233F
:102B000039F03093B70249CF81E08093B602F3CF1A
:102B100081E08093B70241CF86E0E2EBF2E0DF0193
:102B20001D928A95E9F71092B0021092AF021092AE
:102B3000B1020895AF92BF92CF92DF92EF92FF92CF
:102B40000F931F93CF93DF938B01282F111114C084
:102B5000442329F090E0845C9E4FFC018491682F0F
:102B6000782FDF91CF911F910F91FF90EF90DF9021
:102B7000CF90BF90AF900895C12FD0E030E04423B4
:102B800029F0245C3E4FF901249130E0F6E00F9FDC
:102B900070011124EFEFF0E0C701BF010E946D3317
:102BA000AB01802F90E0880F991FA5E5A49FB0018D
:102BB000A59F700D1124861B970B782F770F780F28
:102BC000CF018C1B9D0B829FD001839FB00D929FE4
:102BD000B00D11246B2F719FC0011124892F9927EB
:102BE0008F01081B190BC801829F8001839F100D64
:102BF000929F100D1124812F5F01A71AB108AC9E7E
:102C00006001AD9ED00CBC9ED00C1124CD2CDD24D7
:102C1000EC19FD09E29FE001E39FD00DF29FD00D7A
:102C20001124722F43305105D1F09CEFE91693E047
:102C3000F90670F441305105B1F042305105B9F058
:102C4000EFEFEE16F10408F08CCF8B2F6D2F89CFAC
:102C50004430510579F046305105B9F382CF612FE8
:102C6000822F7B2F7ECF622F712F8B2F7ACF8D2FCC
:102C7000622FF7CF822F7D2F74CF41E00C949A15ED
:102C80009C0190E080E0269F812D369F800D911D54
:102C9000112408959C018230910508F408959FEF56
:102CA000213E8EE1380740F4C90145E096958795AD
:102CB0004A95E1F798E0980F61E0E62FE90FFF27CA
:102CC000FF1FAF0155954795842F449FF001459F05
:102CD000F00DF00D11242E173F0738F49FEF940FDD
:102CE000961758F78FEF860F08954F3FE9F361E08D
:102CF000640FF6CF982FE82F96FDE0952E2F2F70BA
:102D000096FD2F5FE695E695E695E670F0E0E95EC4
:102D1000FD4F8181829F802D212D112482958F70FE
:102D20002295207F822B2081820F97FD81958058EC
:102D300008951F93172F922FE42FF0E0EE0FFF1F3F
:102D4000EA5EFE4F2081322F24EE329F312D112476
:102D5000472F50E0232F30E0245E3F4F291B3109DD
:102D600037FF03C031952195310993E0220F331FBE
:102D70009A95E1F7421B530B57FD40E0742F719F6A
:102D8000712D11241F9108951F93182F822FE42F66
:102D9000F0E0EE0FFF1FEA5EFE4F2081322F24EE9F
:102DA000329F312D1124412F50E0232F30E0245E3B
:102DB0003F4F281B310937FF03C031952195310959
:102DC00083E0220F331F8A95E1F7CA01821B930B20
:102DD0009C0197FD20E0219F212D1124822F1F911E
:102DE0000895622F0895E42FF0E0EE0FFF1FEA5ED2
:102DF000FE4F6081621B0895E42FF0E0EE0FFF1F8D
:102E0000EC5FFE4F6389621B0895322F50E0FA0198
:102E1000EE0FFF1FEC5FFE4F9389905297FD919547
:102E2000440F551FFA01EA5EFE4F2081231B330B2E
:102E3000290F311D97FD3A95620F0895EF920F9378
:102E40001F9393E0099F80011124159507956E2D1E
:102E5000600F1F910F91EF9008950F93CF93DF9321
:102E6000D72FC82FB90147FD419528E330E0241B37
:102E7000310947FD3395229FA001239F500D500D2E
:102E80001124669FC001679F900D900D1124840F3F
:102E9000951F0E944A16982F990F692F680F600F8F
:102EA0007D2F8C2FDF91CF910F9108950F931F935A
:102EB000522F10E0F801EE0FFF1FEC5FFE4FA389C9
:102EC000A052BB0B9D015203F001539FF00D112442
:102ED000000F111FD801AA5EBE4F2C912057330B53
:102EE0004203D001439FB00D11249F012A0F3B1FC5
:102EF00037FF02C021583F4F220F232F221F330BD1
:102F0000620F1F910F9108950F931F93522F10E09E
:102F1000F801EE0FFF1FEC5FFE4FA389A052BB0B21
:102F20009D015203F001539FF00D1124000F111F5A
:102F3000D801AA5EBE4F2C912057330B4203D0011B
:102F4000439FB00D11249F012A0F3B1F37FF02C082
:102F5000215C3F4F96E0359527959A95E1F7620FF2
:102F60001F910F9108950F931F93A42F10E0F80164
:102F7000EE0FFF1FEA5EFE4F9081905797FD9195EF
:102F8000000F111FF801EC5FFE4F03890052110B77
:102F90002003A001219F500D112428E330E0291BBC
:102FA000310997FD33951A2F1203F001139FF00D8D
:102FB00011244E0F5F1F9A01220F331F240F351F5C
:102FC00037FF02C021583F4F220F232F221F330B00
:102FD000620F1F910F9108950F931F93CF93DF936B
:102FE0008B01D82FC42F822F0E947A16EC2FF0E08D
:102FF000EE0FFF1FEA5EFE4F90819058980F97FDED
:103000009195990F692F2CE0629F612D1124600F1B
:10301000712F8D2FDF91CF911F910F910895E42F84
:10302000F0E0EE0FFF1FEA5EFE4F9081921B97FDCE
:103030009195292F38E1239F212D1124620F0895A6
:103040004095282F429F412D1124842F089522E876
:10305000241B08F420E0620F0895EF92FF920F9373
:10306000282FC70135E0039F800D911D11248F3F4C
:10307000910519F010F08FEF90E08095382F230F15
:1030800008F42FEF822F0F91FF90EF900895EF92A9
:10309000FF920F93E00EF11CF90137FF03C0F19589
:1030A000E195F10924E0EE0FFF1F2A95E1F7EF3FCC
:1030B000F10519F014F0EFEFF0E09A0157FF03C0AB
:1030C00031952195310994E0220F331F9A95E1F74C
:1030D0002E173F070CF4F901EE0DFF1DEF3FF10530
:1030E00019F010F0EFEFF0E0E095282F3E2F230FBE
:1030F00008F42FEF822F0F91FF90EF900895EF9239
:10310000FF920F93972FFA01B9019701093430F418
:10311000201B31092F3F310519F010F02FEF30E05F
:103120003896719740F0AB01485F5F4F41315105D0
:1031300010F02FEF30E02095382F320F08F43FEFDA
:1031400077FF02C06D5F7F4F7595679575956795A1
:1031500080912203680F792F832F0F91FF90EF90BA
:103160000895EF92FF920F93282FC701801B9109BA
:103170008F3F910519F010F08FEF90E0382F3095C8
:10318000230F08F42FEF680F822F0F91FF90EF901D
:103190000895EF92FF920F93282FC701801B91098A
:1031A0008F3F910519F010F08FEF90E08095382F48
:1031B000230F08F42FEF822F0F91FF90EF900895C7
:1031C000FC019B01009719F4832F80780895AC01CE
:1031D00097FF04C044275527481B590BB901640FBA
:1031E000751F37FD0FC0241B350BC901A5E0880FE3
:1031F000991FAA95E1F70E94813380E2861BF7FDB3
:1032000081950895CB0165E0880F991F6A95E1F7D4
:10321000BA01621B730B0E94813380E6EFCF0F93DC
:103220001F93CF93DF93D62F172FC82FBA01C90151
:10323000212F201B022F0E94E018982F990F990F21
:10324000782F791B700F719F712D11246D2F8C2F8A
:10325000DF91CF911F910F9108950F931F93CF93FB
:10326000DF93D62FC72F182FBA01C901212F201B9A
:10327000022F0E94E018982F990F990F282F291BD1
:10328000200F219F212D11246D2F7C2F822FDF9164
:10329000CF911F910F910895EF920F931F93CF93AA
:1032A000DF93D62F172FC82FBA01C9010E19010FAE
:1032B0000E94E018702F781B719F712D11246D2FC3
:1032C0008C2FDF91CF911F910F91EF900895EF9286
:1032D0000F931F93CF93DF93D62FC72F182FBA01C9
:1032E000C9010E19010F0E94E018081B019F012D52
:1032F00011246D2F7C2F802FDF91CF911F910F9183
:10330000EF9008950F93CF93DF93D72FC82FBA0173
:10331000C9010E94E018682F600F7D2F8C2FDF916C
:10332000CF910F910895EF920F93CF93DF93D72F03
:10333000C82FBA01C9010E190E94E018602F681B3E
:103340007D2F8C2FDF91CF910F91EF9008950C94EA
:103350003D161F93CF93DF935FEF580FA1E0A80FA7
:103360004FEF460F91E0960FC82FD0E0662381F013
:1033700026E02C9FF0012D9FF00D1124E851FD4F08
:10338000E40FF11D208130E1230F08F42FEF20839B
:10339000262F30E076E07C9FF0017D9FF00D112418
:1033A000E851FD4FEF01C20FD31F788110E2710F7A
:1033B00008F47FEF7883963040F4E90FF11D7081B7
:1033C00010E1710F08F47FEF7083A33010F1A52F87
:1033D000B0E0461708F452C086E08A9FF0018B9F48
:1033E000F00D1124E851FD4FDF01A20FB31F2C9106
:1033F00030E1230F08F42FEF2C93963008F03AC0F9
:10340000E90FF11D20813DE0230F08F42FEF208309
:1034100031C0B0E0461780F476E07A9FF0017B9FE0
:10342000F00D1124E851FD4FE40FF11D70811DE0F6
:10343000710F08F47FEF708376E07A9FF0017B9F35
:10344000F00D1124E851FD4FDF01A20FB31F7C9155
:1034500010E1710F08F47FEF7C93963040F4E90F90
:10346000F11D70811DE0710F08F47FEF7083581714
:1034700008F4ADCFDF91CF911F91089586E08A9F28
:10348000F0018B9FF00D1124E851FD4FE40FF11D69
:1034900040815DE0450F08F44FEF40839DCF46E04B
:1034A00050E06CE170E081E293E00C94713446E00E
:1034B00050E06CE170E081E293E00C948F34E1E243
:1034C000F3E085E380838091670190916801A0918A
:1034D000690181839283A3838FE784838FEF858340
:1034E0000C94571A80E008950F931F93CF93DF93A6
:1034F000C82FD62F8A010E94721A96E0C99FF00148
:103500001124EC5FFE4FED0FF11D90819F3F29F0DC
:10351000F801E80FF11D90838F5FDF91CF911F912C
:103520000F910895E0912502F09126020994E0910F
:103530002102F091220209943F924F925F926F9282
:103540007F928F929F92AF92BF92CF92DF92EF9233
:10355000FF920F931F93CF93DF933C012B01FC014C
:10356000C081CC0FCC0F14E01C0F312E133110F0A2
:1035700032E1332E60912503669580912703909167
:1035800028030E944016F82ED0E0CE01880F991F24
:103590009C012C5F3E4F6901C315B0F081E01231F0
:1035A00008F080E0DF91CF911F910F91FF90EF9095
:1035B000DF90CF90BF90AF909F908F907F906F9053
:1035C0005F904F903F900895FE01EC5FFE4F86A9FB
:1035D000F3019181892379F1F6018289282F2057FF
:1035E000330B59018389E82FE052FF0B4F01AA9C4E
:1035F0009001AB9C300D300D1124EE9FC001EF9F68
:10360000900D900D1124820F931F0E944A16082FCF
:10361000609122037091230380912403EF2C940185
:10362000A501F20109950E94A719462F672F282F9F
:10363000CE010E94971AF2E0CF0ED11C2196ACCF9A
:103640006CE479E10C949C1A67E679E10C949C1A7D
:103650006EE177E10C949C1A63E979E10C949C1A71
:103660008F929F92AF92BF92CF92DF92EF92FF9292
:103670000F931F93CF93DF936C015B01FC01C0811B
:10368000CC0FCC0F14E01C0F812E133110F032E15F
:10369000832E6091250366958091270390912803DE
:1036A0000E944016982ED0E0CE01880F991F9C01F1
:1036B0002C5F3E4F7901C81588F081E0123108F087
:1036C00080E0DF91CF911F910F91FF90EF90DF90FD
:1036D000CF90BF90AF909F908F900895FE01EC5FC8
:1036E000FE4F86A9F60191818923C1F0F701238954
:1036F0002052330B42894057550B60912203709141
:10370000230380912403092DF50109950E94A7192F
:10371000462F672F282FCE010E94971AF2E0EF0E56
:10372000F11C2196C8CF6FE079E10C94301B6DE25B
:1037300079E10C94301B6DE277E10C94301B62E868
:1037400079E10C94301BBF92CF92DF92EF92FF92FF
:103750000F931F93CF93DF937C018B01FC01C081FA
:10376000CC0FCC0F94E0D92EDC0EBD2CF2E1FD1570
:1037700010F482E1B82E609125036695669521E0EC
:10378000620F08F46FEF80912703909128030E9445
:103790004016C82ED0E0CB1578F081E091E19D1560
:1037A00008F480E0DF91CF911F910F91FF90EF908F
:1037B000DF90CF90BF900895FE01EC5FFE4F86A989
:1037C000F7019181892391F0609122037091230385
:1037D000809124032C2D4C2FF80109950E94A719E4
:1037E000462F672F282FCE010E94971A2196D3CFFC
:1037F00069E976E10C94A31B64EC76E10C94A31BBD
:1038000061EF76E10C94A31B63EF76E10C94A31BAC
:103810006CEF76E10C94A31B65E077E10C94A31B9D
:103820006CEE77E10C94A31B6FE078E10C94A31B82
:103830009F92AF92BF92CF92DF92EF92FF920F933F
:103840001F93CF93DF9300D000D00F92CDB7DEB798
:103850006C015B01FC01F081FF0FFF0FFB8394E023
:10386000F92EFF0E9F2C82E18F1510F482E1982E25
:1038700060912503669566958091270390912803B2
:103880000E944016182F80E4810F0E947A168058FB
:103890008983812F0E947A1680588A83FB81EF2FBB
:1038A000F0E0FD83EC839C819915B0F081E0E1E1CB
:1038B000EF1508F480E00F900F900F900F900F908D
:1038C000DF91CF911F910F91FF90EF90DF90CF90FC
:1038D000BF90AF909F900895EC81FD81EC5FFE4F0B
:1038E00086A9F60191818923A9F060912203709144
:1038F000230380912403E12E0C812A814981F50163
:1039000009950E94A719462F672F282F8C819D812A
:103910000E94971A8C819D8101969D838C83C3CFD1
:1039200066E577E10C94181C64E877E10C94181CA8
:1039300063EB77E10C94181C8F929F92AF92BF9229
:10394000CF92DF92EF92FF920F931F93CF93DF936B
:103950008C017B01FC01C081CC0FCC0F24E0B22E86
:10396000BC0EAB2CF2E1FB1510F492E1A92E2091D4
:10397000250331E0230F08F42FEF30E050E040E062
:103980006FEF7FEF80E090E00E9495336901D0E017
:10399000922E8D2C2C2FCA1590F081E0F1E1FB15B1
:1039A00008F480E0DF91CF911F910F91FF90EF908D
:1039B000DF90CF90BF90AF909F908F900895FE01C1
:1039C000EC5FFE4F86A9F8019181892319F140919E
:1039D0002B034150042E000C550B47FF1DC0892DB1
:1039E000982D6091250321E0620F08F46FEF0E948B
:1039F0004016AC016091220370912303809124034F
:103A0000F70109950E94A719462F672F282FCE018D
:103A10000E94971A2196BECFFA01E55DFC4F81897D
:103A200082130AC0FA01EE0FFF1FE55DFC4F818D86
:103A3000928D8C159D05A8F241505109CECF60E2C0
:103A400078E10C949C1C67E278E10C949C1C2F920A
:103A50003F924F925F926F927F928F929F92AF921E
:103A6000BF92CF92DF92EF92FF920F931F93CF936B
:103A7000DF93CDB7DEB72B970FB6F894DEBF0FBE3E
:103A8000CDBF8E832B014B835C83FB01F081FF0F45
:103A9000FF0FF983FC5FFA83FD83F33110F022E11D
:103AA0002D8330912B033F839981892F90E09B8751
:103AB0008A87880F991FFC01EC5FFE4F6F01FE8122
:103AC0008F2F90E09C012F5F3F4F39872887ED8132
:103AD000FA85FE17F0F081E02A81223108F080E0BB
:103AE0002B960FB6F894DEBF0FBECDBFDF91CF91FE
:103AF0001F910F91FF90EF90DF90CF90BF90AF900C
:103B00009F908F907F906F905F904F903F902F90FD
:103B10000895EA85FB85EC5FFE4F86A9F20191814D
:103B2000892301F1209022033090230328853985D1
:103B3000255D3C4F39013E81398310E029813F8169
:103B40002317C8F020912403129F112D1124B101D5
:103B5000812F0E94A719462F672F282F8A859B85C2
:103B60000E94971A8A859B8501969B878A8792E097
:103B7000C90ED11CACCFF30181913F01F601A2889F
:103B8000A81ABB088388F3018781881A9908AA9C20
:103B90009001AB9C300D300D1124889CC001899C94
:103BA000900D900D1124820F931F0E944A16082F2A
:103BB0006091250321E0620F08F46FEFF301EE0F2F
:103BC000FF1FEB52F340858996890E9440167C01C5
:103BD0009401A501B101812FEB81FC8109951B01A5
:103BE000182FF981FF5FF983A9CFBC0120912B0326
:103BF00031E0231B08F420E04DE258E1822F0C94C1
:103C0000271DBC014DE258E180E00C94271DBC014A
:103C100020912B0331E0231B08F420E047E458E116
:103C2000822F0C94271DBC0147E458E180E00C94DE
:103C3000271DBC0120912B0331E0231B08F420E059
:103C40004FE758E1822F0C94271DBC014FE758E144
:103C500080E00C94271DBC0120912B0331E0231B35
:103C600008F420E041EB58E1822F0C94271DBC01A1
:103C700041EB58E180E00C94271DBC0120912B03FF
:103C800031E0231B08F420E049EC58E1822F0C942A
:103C9000271DBC0149EC58E180E00C94271DBF9220
:103CA000CF92DF92EF92FF920F931F93CF93DF9308
:103CB0008C01FC01C081CC0FCC0F94E0F92EFC0EDE
:103CC000BF2CF2E1FF1510F482E1B82E60912203BF
:103CD00070912303809124030E94A719E62ED72E0A
:103CE000C82ED0E0CB1578F081E091E19F1508F463
:103CF00080E0DF91CF911F910F91FF90EF90DF90C7
:103D0000CF90BF900895FE01EC5FFE4F86A9F801A9
:103D10009181892331F02C2D4E2D6D2DCE010E94E5
:103D2000971A2196DFCF8F929F92AF92BF92CF9238
:103D3000DF92EF92FF920F931F93CF93DF938C014B
:103D4000FC01C081CC0FCC0F94E0F92EFC0E8F2C1F
:103D5000F2E1FF1510F482E1882ED0912203A090A9
:103D60002303B09024036D2F7A2D8B2D0E94A71969
:103D7000E62ED72EC82E809125036D2F680F7A2D41
:103D80008B2D0E94A719B62EA72E982ED0E0C8150D
:103D900090F081E091E19F1508F480E0DF91CF91F0
:103DA0001F910F91FF90EF90DF90CF90BF90AF9059
:103DB0009F908F900895FE01EC5FFE4F96A9F80149
:103DC0008181892359F0292D4B2D6A2D90FD03C047
:103DD0002C2D4E2D6D2DCE010E94971A2196D7CFF6
:103DE000BF92CF92DF92EF92FF920F931F93CF93E8
:103DF000DF938C01FC01C081CC0FCC0F34E0F32E9B
:103E0000FC0EDF2CF2E1FF1510F422E1D22EC0905F
:103E10002303B09024032091250390E4E92E3E2D46
:103E2000329F312D1124E32ED0E0CD1578F081E0C2
:103E300031E13F1508F480E0DF91CF911F910F91A0
:103E4000FF90EF90DF90CF90BF900895FE01EC5F60
:103E5000FE4F86A9F80191818923B9F0FE01EE0F8A
:103E6000FF1FEC5FFE4F838982958F706091220364
:103E70008E9D600D11247C2D8B2D0E94A719462F3D
:103E8000672F282FCE010E94971A2196CECFBF927E
:103E9000CF92DF92EF92FF920F931F93CF93DF9316
:103EA0008C01FC01C081CC0FCC0F54E0F52EFC0E30
:103EB000DF2CF2E1FF1510F442E1D42EC090230371
:103EC000B09024032091250330E4E32E3E2D329F51
:103ED000312D1124E32ED0E0CD1578F081E031E1D1
:103EE0003F1508F480E0DF91CF911F910F91FF9073
:103EF000EF90DF90CF90BF900895FE01EC5FFE4FF2
:103F000086A9F80191818923D9F0FE01EE0FFF1FE8
:103F1000EC5FFE4F8289E89EC001112425E0959553
:103F200087952A95E1F760912203680F7C2D8B2DF0
:103F30000E94A719462F672F282FCE010E94971A9B
:103F40002196CACFBF92CF92DF92EF92FF920F934A
:103F50001F93CF93DF938C01FC01C081CC0FCC0F5A
:103F600094E0F92EFC0EBF2CF2E1FF1510F482E173
:103F7000B82EE0902203D0912303D09024036091C7
:103F80002503669566956695809127039091280391
:103F90000E9440160E947A16805887FD8195880FEE
:103FA000282F3D2D239F212D11246E2D7D2F822F13
:103FB0000E94A719E62ED72EC82ED0E0CB1578F098
:103FC00081E031E13F1508F480E0DF91CF911F914E
:103FD0000F91FF90EF90DF90CF90BF900895FE017A
:103FE000EC5FFE4F86A9F8019181892331F02C2DD9
:103FF0004E2D6D2DCE010E94971A2196DFCFBF92D4
:10400000CF92DF92EF92FF920F931F93CF93DF93A4
:104010008C01FC01C081CC0FCC0F94E0F92EFC0E7A
:10402000BF2CF2E1FF1510F482E1B82ED0902303EB
:10403000E0902403D0912203609125036695669554
:10404000669580912703909128030E9440160E9454
:104050007A16805887FD8195880F682F3CE0639F12
:10406000612D11246D0F7D2D8E2D0E943D16E62EA3
:10407000D72EC82ED0E0CB1578F081E091E19F15C6
:1040800008F480E0DF91CF911F910F91FF90EF90A6
:10409000DF90CF90BF900895FE01EC5FFE4F86A9A0
:1040A000F8019181892331F02C2D4E2D6D2DCE01FB
:1040B0000E94971A2196DFCF2F923F924F925F92E4
:1040C0006F927F928F929F92AF92BF92CF92DF9228
:1040D000EF92FF920F931F93CF93DF93CDB7DEB78D
:1040E0002F970FB6F894DEBF0FBECDBF282E6D8779
:1040F000809124038E8760E070E00E943D168B0162
:10410000F82E60E87FEF8E850E943D162B01382E39
:104110006FEB7FEF8E850E943D166983672E8A8341
:1041200060E47FEF8E850E943D166B83772E8C8333
:104130006AE67FEF8E850E943D166D83872E8E8303
:104140006AEE70E88E850E943D166F83972E8887F1
:1041500065ED7FEF8E850E943D16D62EE72EC82E88
:1041600060E07FEF8E850E943D166987A72E8A87C3
:1041700065E57FEF8E850E943D166B87B72E8C8795
:104180006AEA7FEF8E850E943D16462F672F282F03
:104190009D859A3008F05CC0E92FF0E0EA5FFA4CA8
:1041A000822D90E09F878E870C94B43320E040E00E
:1041B00060E08E859F852F960FB6F894DEBF0FBE08
:1041C000CDBFDF91CF911F910F91FF90EF90DF90C6
:1041D000CF90BF90AF909F908F907F906F905F90A7
:1041E0004F903F902F900C94971A232D442D652DBE
:1041F000E0CF2A814981662DDCCF2C814B81672D50
:10420000D8CF2E814D81682DD4CF28854F81692D3F
:10421000D0CF80911A0380FFCCCF0E9404022A8560
:1042200049856A2D8111C5CF2C854B856B2DC1CF5A
:104230000E940B2B81FF08C02C2D4D2D6E2DB9CF68
:104240000E940B2B80FDF8CF2F2D402F612FB1CF77
:104250002F960FB6F894DEBF0FBECDBFDF91CF9182
:104260001F910F91FF90EF90DF90CF90BF90AF9094
:104270009F908F907F906F905F904F903F902F9086
:1042800008951F93CF93DF93EC01FC01EC5FFE4F89
:1042900086A96823C9F00E944434182F0E94443430
:1042A000782F7F7720E8720F08F47FEF612F8091DD
:1042B00024030E94A719462F672F282FCE01DF91D4
:1042C000CF911F910C94971ADF91CF911F91089570
:1042D000DF92EF92FF920F931F93CF93DF938C01A6
:1042E000FC01C281C11125C06091250320E1620F4C
:1042F00008F46FEF80912703909128030E944016E5
:1043000065E070E00E946D33892B51F40E944434C3
:1043100062E170E00E948133F80161810E944121D5
:104320008C2FDF91CF911F910F91FF90EF90DF9035
:104330000895C081CC0FCC0F84E0D82EDC0E8D2DDB
:10434000F2E1FD1508F482E1D0E0E82EF12CCE1563
:10435000DF0534F0C1E0F1E1FD1510F7C0E0E0CF7A
:10436000F8016181CE010E9441212196F0CFDF92B8
:10437000EF92FF920F931F93CF93DF93EC01FC0119
:10438000EC5FFE4F86A9682381F1D0902303009152
:10439000240310912203E12EF12C0E944434282F93
:1043A000C7018C549F4F68E671E00E9481338E19DB
:1043B0009F0997FD03969595879595958795237009
:1043C000612F289F600D11247D2D802F0E94A71939
:1043D000462F672F282FCE01DF91CF911F910F918C
:1043E000FF90EF90DF900C94971ADF91CF911F917F
:1043F0000F91FF90EF90DF900895DF92EF92FF9280
:104400000F931F93CF93DF938C01FC01C281C111E5
:1044100025C06091250320E1620F08F46FEF8091C1
:104420002703909128030E9440166AE070E00E94E2
:104430006D33892B51F40E94443462E170E00E9494
:104440008133F80161810E94B7218C2FDF91CF91D8
:104450001F910F91FF90EF90DF900895C081CC0FD6
:10446000CC0F84E0D82EDC0E8D2DF2E1FD1508F482
:1044700082E1D0E0E82EF12CCE15DF0534F0C1E06A
:10448000F1E1FD1510F7C0E0E0CFF8016181CE0148
:104490000E94B7212196F0CFE0912302F0912402EF
:1044A00009942F923F924F925F926F927F928F92D8
:1044B0009F92AF92BF92CF92DF92EF92FF920F93B3
:1044C0001F93CF93DF93CDB7DEB72A970FB6F8943B
:1044D000DEBF0FBECDBF3C01DC010C91000F000F11
:1044E000B4E0B00FB9874B2EB33110F092E1492EF2
:1044F000F3018281882361F040E060E080E00E9467
:104500004C22E8EEF2E082E1DF011D928A95E9F7A4
:10451000F3018081811117C08091FB029091FC0210
:104520000E94612C9C0181E02931310508F480E072
:104530008093FA022931310530F00E94352C909396
:10454000FC028093FB0210E0512C86E0282E9E0195
:104550002F5F3F4F690104151505F4F081E099853F
:10456000923108F080E02A960FB6F894DEBF0FBEB5
:10457000CDBFDF91CF911F910F91FF90EF90DF9012
:10458000CF90BF90AF909F908F907F906F905F90F3
:104590004F903F902F900895C80163E070E00E9413
:1045A00081335B014C01289EF001299EF00D1124FE
:1045B000E851FD4FE60FF71F3080A6010E94741AE4
:1045C0008A8776018E2D8C19EA858E17B0F080913E
:1045D000FA02882379F0232D31E0231B08F420E030
:1045E000289CF001299CF00D1124E851FD4FEA0DA3
:1045F000FB1D20830F5F1F4FAECFD701EC91F0E082
:10460000EC5FFE4F86A9F3019181892311F1232DDF
:1046100035E5231B08F420E06AEA621B709123034E
:104620003AEA232D320F08F43FEF40912403232F61
:10463000220F230F2E5F249F212D1124822F0E94F1
:10464000A719462F672F282FD7018C9190E00E9441
:10465000971ABFEFEB1AFB0AB5CF6F927F928F923A
:104660009F92AF92BF92CF92DF92EF92FF920F9301
:104670001F93CF93DF93CDB7DEB728970FB6F8948B
:10468000DEBF0FBECDBFDC0112968C91882371F086
:1046900040E060E080E00E944C22E8EEF2E082E13F
:1046A000DF011D928A95E9F71092B80288EEC82EB4
:1046B00082E0D82E00E077247A9490EDA92EB12CD8
:1046C00020EC622E3FE2832E912C760110E0809147
:1046D000B802812B09F062C00E94443485359540B0
:1046E0000CF05CC0F6017082AE014F5F5F4F602F2F
:1046F000812F0E94741A8823B1F0F7012081E9818B
:10470000F0E0213D08F452C0205D330B629EC001F1
:10471000639E900D1124B4010E946D33262F4FEF3C
:10472000CF010E94971A1F5FF6E0EF0EF11C1330C5
:1047300071F60F5F2FEFC21AD20A063031F6809160
:10474000B8028F5F8D31E0F11092B80282E090E004
:1047500022E056E06EEE72E03EEF259FF00111245C
:10476000EE51FD4FA8EEB2E0223041F41C964C9180
:104770001C974F3F19F41C963C931C9740814F3F68
:1047800011F430834683119631966A177B0761F7DF
:1047900021E00197B9F081E090E0DFCFD7018C9163
:1047A00081508E3F08F0A0CF8C939ECF279DC001F3
:1047B0001124B5010E946D33462F20E060E0B0CF98
:1047C0008093B80280E028960FB6F894DEBF0FBE43
:1047D000CDBFDF91CF911F910F91FF90EF90DF90B0
:1047E000CF90BF90AF909F908F907F906F900895E3
:1047F000AF92BF92DF92EF92FF920F931F93CF93EE
:10480000DF93CDB7DEB728970FB6F894DEBF0FBEA3
:10481000CDBFE82ED62E142F0E94E00E882309F477
:1048200055C0F12C112341F0AE014F5F5F4F6D2D4C
:104830008E2D0E94741AF82E0F2D10E08091B9026F
:10484000800F912F911D09976CF188E090E05C0139
:10485000A01AB10AB80166547D4FA5018AEB92E017
:104860000E946134B8016E537D4FA50182EC92E045
:104870000E946134A501440F551FB801660F771FD0
:104880006E527D4F82ED92E00E946134B801665312
:104890007D4FA5018AEC92E00E94613488E08F1977
:1048A0008093B9021091B902DE01119680E0282FA1
:1048B000210FF8121BC02093B902809121038C7F35
:1048C000803721F46D2D8E2D0E94A91928960FB6E0
:1048D000F894DEBF0FBECDBFDF91CF911F910F9136
:1048E000FF90EF90DF90BF90AF9008959D91492F7A
:1048F00050E030E0B90167547D4FFA01EE0FFF1F21
:10490000EA5EFE4F0081FB010183440F551FFA014F
:10491000EC5FFE4F4389FB014187918B220F331FD0
:10492000F901E754FD4F128E118E8F5FC0CFEF92C9
:10493000FF920F931F93CF93DF93C82F80915A015B
:104940008C1323C090912103937020915B0130E080
:1049500081E09217130609F480E081708093590179
:104960008091260390915801981739F0809358014F
:1049700040E060E080E00E944C22CB3288F4EC2FD3
:10498000F0E0E05FFA4C0C94B43381E0E6CF809124
:104990005901882359F040E060E080E00E944C22F9
:1049A00080E004C087E591E00E944F1E909157017E
:1049B0009F5F9093570181110CC082E08093560154
:1049C00080915901811105C0C11103C083E080931A
:1049D0005601DF91CF911F910F91FF90EF900895B5
:1049E00087E591E00E94931EE1CF87E591E00E9468
:1049F000F01EDCCF87E591E00E94471FD7CF87E507
:104A000091E00E94A21FD2CF87E591E00E94F81B9F
:104A1000CDCF87E591E00E94FC1BC8CF87E591E0F0
:104A20000E94931BC3CF87E591E00E94971BBECFE6
:104A300087E591E00E94201BB9CF87E591E00E94B5
:104A4000241BB4CF87E591E00E94001CAFCF87E51F
:104A500091E00E94041CAACF87E591E00E94081C07
:104A6000A5CF87E591E00E940C1CA0CF87E591E0DF
:104A70000E94281B9BCF87E591E00E949B1B96CF4D
:104A800087E591E00E949F1B91CF87E591E00E940E
:104A90002C1B8CCF87E591E00E94901C87CF87E587
:104AA00091E00E94941C82CF87E591E00E94981CBF
:104AB0007DCF87E591E00E94FD2178CF87E591E0E9
:104AC0000E94682173CF87E591E00E94FF1F6ECF9F
:104AD00087E591E00E94101C69CF87E591E00E9474
:104AE000141C64CF87E591E00E9451225FCF87E5D7
:104AF00091E00E942D235ACF87E591E00E941F1D6F
:104B000055CF87E591E00E94231D50CF87E591E0C6
:104B10000E94F51D4BCF87E591E00E94011E46CF14
:104B200087E591E00E94071E41CF87E591E00E9452
:104B3000131E3CCF87E591E00E94191E37CF87E511
:104B400091E00E94251E32CF87E591E00E942B1E46
:104B50002DCF87E591E00E94371E28CF87E591E0B1
:104B60000E943D1E23CF87E591E00E94491E1ECF83
:104B7000D0915701DD0FDD0F94E0F92EFD0EEF2CE3
:104B800082E18F1510F482E1E82E0D2F10E0015321
:104B90001E4FDE1530F081E0F1E1FF1508F006CF81
:104BA000FFCE82E00E942C08882349F0F80164A11E
:104BB0008D2F0E945C20DF5F0F5F1F4FEACF81E0E7
:104BC0000E942C08882319F0F8016289F1CF83E054
:104BD0000E942C08F801882311F066A9E9CF6081B2
:104BE000E7CF089508950E94F1250C94F2250895C9
:104BF0000895CF93DF93FC01C081C150CC0FCC0F3F
:104C0000D4E0DC0FD33108F0D2E16D2F8C2F0E945D
:104C1000F7256D2F8C2FDF91CF910C94F8254F92B3
:104C20005F926F927F928F929F92AF92BF92CF923C
:104C3000DF92EF92FF92CF93DF9300D000D0CDB7F9
:104C4000DEB78091E2029091E302A091E402B0917C
:104C5000E50289839A83AB83BC83BC01CD010E94AA
:104C6000702C6B017C010E94412C6093E2027093D6
:104C7000E3028093E4029093E502A091B902E9EB8C
:104C8000F2E02A2F30E088248A94982CA12CB12CB1
:104C90008C189D08AE08BF08A3132FC02093B9023B
:104CA0002091E70221113CC020912103A22FA37083
:104CB000A983AA2319F026952695298320915601C8
:104CC000223009F462C070F5211141C010925701E1
:104CD00060932703709328038093290390932A03FA
:104CE00089E2E9EBF2E0ABE2B3E001900D928A9544
:104CF000E1F781E08093560117C0418D528D2A0162
:104D0000712C612C84149504A604B70420F421505E
:104D10003F5F3296C1CF4C0D5D1D528F418FF8CF52
:104D20001982CCCF2330E9F10F900F900F900F90A4
:104D3000DF91CF91FF90EF90DF90CF90BF90AF9039
:104D40009F908F907F906F905F904F900895898192
:104D50000E949724B981BB2339F30E94F32587E58C
:104D600091E00F900F900F900F90DF91CF91FF90F7
:104D7000EF90DF90CF90BF90AF909F908F907F90FB
:104D80006F905F904F900C94F925398130935A01C0
:104D900080912103837080935B010E94921A83E0CB
:104DA000A9CF8091E60281110E94571A1092E60263
:104DB0008091270390912803A0912903B0912A03A1
:104DC000BC01CD010E94702C6031710581059105F7
:104DD00008F4AACF10925601A7CFE0911F02F091DC
:104DE0002002099510922B0340E150E06FEF70E034
:104DF00084E493E00E946A341092B90240E150E0EA
:104E00006FEF70E082ED92E00E946A340E94F70D2D
:104E1000811104C00E949C0E0E945F1A0E944F1ACA
:104E2000809121038C7F11F40C945F1A0895CF9325
:104E3000C82F882391F08091E70281110EC00E9453
:104E4000972410925A0180912103837080935B0113
:104E50000E94921A83E080935601C093E702CF919B
:104E60000895E1E2F3E0908121E09227908310928F
:104E700056019091E602982B9093E602089581E006
:104E80000C943127262F909121039370A1F0882351
:104E900099F08B3298F48F73880F880F90912103CB
:104EA0009370892B80932103109256016091E60242
:104EB000622B6093E602089581E0EECF8AE2ECCFA8
:104EC00061E00C944227682F809121038695869596
:104ED0008F5F8B3208F081E00C94422781E00C94C4
:104EE0006327682F90912103969596958FEF890FF0
:104EF000913009F48AE20C94422781E00C947127E6
:104F0000922F20912103237071F0809322036093EC
:104F10002303473908F046E9409324032091E60231
:104F2000292B2093E6020895282FE1E2F3E09181F6
:104F3000892F90E04381628108960C94802781E05C
:104F40000C949427282FE1E2F3E081814381628170
:104F50008850990B0C94802781E00C94A227282F6D
:104F6000E1E2F3E0628138E0630F08F46FEF8181E2
:104F7000438190E00C94802781E00C94AF27282F88
:104F8000E1E2F3E0628138E0631B08F460E08181D4
:104F9000438190E00C94802781E00C94BF27282F58
:104FA000E1E2F3E0438138E0430F08F44FEF818101
:104FB000628190E00C94802781E00C94CF27282F09
:104FC000E1E2F3E0438138E0431B08F440E08181F3
:104FD000628190E00C94802781E00C94DF2780931D
:104FE00025038091E602862B8093E6020895682FC0
:104FF000209125033AE0230F08F42FEF822F0C9421
:10500000EF2781E00C94F727682F209125033AE0E1
:10501000231B08F420E0822F0C94EF2781E00C94EE
:1050200004280895FC01EE0FFF1FE80FF91FEC5A4A
:10503000FC4F6183408322830895FF920F931F9357
:10504000CF93DF93182F062FF42ED0E0C0E02F2D42
:10505000402F612FCE010E9412282196C231D10526
:10506000B1F7DF91CF911F910F91FF90089562E109
:1050700070E084E593E00C94AE28FA018111099464
:10508000FB01FDCF0F931F93CF938C01FB01C281D6
:10509000CC2309F45DC00E943F0D8272073DFCE500
:1050A0001F0778F4033C9CE5190708F452C0F80187
:1050B000E45CFC45E331F10550F4E55CFA4C0C94FA
:1050C000B4330E351D4509F044C0C0E042C00E9413
:1050D0003F27FBCF4DE757E26EE677E20E943D287F
:1050E000F4CF4EE657E26DE777E2F8CF4CEA57E2AD
:1050F0006FE977E2F3CF4FE957E26CEA77E2EECF60
:105100004CEC57E26CEB77E2E9CF4CEB57E26CECFE
:1051100077E2E4CF4CEE57E26CED77E2DFCF4CED77
:1051200057E26CEE77E2DACF4EE058E261E078E2E7
:10513000D5CF41E058E26EE078E2D0CF81E00E9426
:105140006027C3CF85E0FBCF8DE0F9CF82E1F7CFB9
:10515000C1E08C2FCF911F910F9108959C01AB015D
:10516000529A6BB16B7F7BB17460EFB7F894CA0150
:10517000880F991F840F951F820F931F8217930723
:1051800041F4EFBF8FE594E00197F1F700C0000014
:105190000895D9014D919D0158E07BB9000000C0F0
:1051A00047FF6BB9440F000000C000C000C06BB9DE
:1051B00000C05A9591F7E2CF0C942E0224982C9AB5
:1051C00025982D9A93B183B185FB882780F9880FA4
:1051D00092959170892B8093FF020895E091FF02D0
:1051E000EE0FEE0FE093FF0243B183B190E024E0B5
:1051F000969587952A95E1F78270992744FB222797
:1052000020F9822BE82BE093FF02EF70F0E0E95DDC
:10521000FD4F80819091FE02890F8093FE0220E075
:10522000843054F08091FD028F5F8093FD0260E036
:1052300080E00E94DC2821E08091FE028D3F54F442
:105240008091FD0281508093FD0261E080E00E9428
:10525000DC2821E08091FE02082E000C990B64E00E
:1052600070E00E9481338093FE02822F08950F9395
:105270001F93CF93DF93C42FD22FFC018281882309
:10528000C9F0409302030E94352C90930103809350
:10529000000380E28C0F883008F050C0C77081E0B6
:1052A00001C0880FCA95EAF7DF91CF911F910F9146
:1052B0000C94810410910203141335C080910003F3
:1052C000909101030E94612C883C910560F5C0E239
:1052D000CD0F1D17B9F080E2810F883040F41770B0
:1052E00081E001C0880F1A95EAF70E948804C8304F
:1052F00048F481E09D2F977001C0880F9A95EAF7D6
:105300000E948104802F0E947904C830B8F4D770BD
:1053100081E001C0880FDA95EAF7DF91CF911F9104
:105320000F910C94880480E28C0F883038F4C77099
:1053300081E001C0880FCA95EAF7EFCFDF91CF91E6
:105340001F910F9108950F939C01CB01243F4CE5D1
:105350003407A1F190F4293DFCE53F0749F12A3DCE
:105360004CE53407E9F1283D3C45C1F0FC01828160
:105370008823E1F11092020319C0263FFCE53F07A4
:1053800019F1273F4CE5340729F1253F3C4571F7DA
:1053900007E225EE44EE65EF7CE505C006E221EE6E
:1053A00041EE68ED7CE50E94372980E00F91089579
:1053B00007E225EE45EE69ED7CE5F5CF06E221EE4C
:1053C00040EE64EF7CE5EFCF06E221EE42EE66EFC1
:1053D0007CE5E9CF07E225EE46EE67EF7CE5E3CF1B
:1053E00008E221E045EE6AED7CE5DDCF81E0DECF2D
:1053F000CF93DF93EC01FB018281882309F4CEC0B7
:10540000C631FCE5DF07E0F4C2309CE5D907F0F0D7
:105410000E940A0E90931A0380931903C631ECE59B
:10542000DE0720F5C230FCE5DF0798F48091190310
:1054300090911A030E94180E0E943A0780E006C05D
:105440009E012B5F3C452930310510F3DF91CF9150
:105450000895FE01E350FC45809119038160E3311A
:10546000F105B0F4E25BFA4C0C94B433CE018B5FDF
:105470009C450997D8F6FE01EC5FFC45E830F10544
:1054800090F4EF59FA4C0C94B43380911903826074
:1054900080931903CBCF809119038460F9CF809159
:1054A00019038860F5CF80911A03816080931A03F5
:1054B000BDCF80911A038260F9CF8091190380617A
:1054C000E7CF809119038062E3CF80911903806454
:1054D000DFCF0E943A07809119038068D9CF80916D
:1054E00019038C60D5CF80911A038360DFCF809140
:1054F00019038E7FCDCF809119038D7FC9CF809105
:1055000019038B7FC5CF80911903877FC1CF80910D
:105510001A038E7FCBCF80911A038D7FC7CF8091E6
:1055200019038F7EB5CF809119038F7DB1CF809104
:1055300019038F7BADCF0E943A07809119038F77B3
:10554000A7CF80911903837FA3CF80911A038C7F0B
:10555000ADCF8091190382FB992790F921E0922722
:1055600090FB82F990FB83F993CF80911A03982FD7
:10557000909591708E7F892B90FB81F997CF0E9437
:105580003A0790911903892F97FB87F9805880CFAC
:1055900081E00E949E0E4ACF80E0FBCF81E056CF93
:1055A000CF93DF93EB0186319C4511F50E943F0DAF
:1055B0009A81992399F08A7A91E009F490E0909386
:1055C0000303811109C089E20E94F90C0E94840D35
:1055D00080E0DF91CF91089585E3F6CF80910303BA
:1055E000811104C089E20E94000DF0CF85E3FBCF5A
:1055F00081E0EFCF90930903809308030895E09131
:105600000803F0910903309721F00190F081E02D1B
:10561000099480E008950E94FF2A0895E09108030C
:10562000F0910903309721F00280F381E02D099475
:105630000895DC01E0910803F0910903309739F0F7
:1056400082E08C930480F581E02DCD0109940895CA
:1056500020910603309107032817390771F09093C2
:10566000070380930603E0910803F0910903309744
:1056700021F00680F781E02D09940895209104031C
:10568000309105032817390771F090930503809333
:105690000403E0910803F0910903309721F000849E
:1056A000F185E02D09940895AC019C012E5F3F4FD8
:1056B000485F5F4F80E02417350709F40895F9012A
:1056C00091919F019923B9F38F5FF5CF9C016623D8
:1056D00051F0FC013296285F3F4F8191861729F0E7
:1056E000E217F307D1F780E0089581E008959C0167
:1056F000FC0132968FEF90E04191461751F08F3FB9
:1057000019F4411101C0892F9F5F9630A9F78F3F8F
:1057100009F40895280F311D87FD3A95F901628338
:1057200008959C01FC013296285F3F4F81918613BA
:1057300003C0DF0111971C92E217F307B9F7089530
:105740000C94772B0C94912BFC01329686E0DF01B0
:105750001D928A95E9F708950895089508950C9487
:10576000AE2B80919203843061F10E94AF2B80E0D8
:105770000E94940381E00E94172710920A0388E197
:1057800090E020E40FB6F894A895809360000FBED7
:105790002093600083B7817F846083BF83B781607B
:1057A00083BF7894889583B78E7F83BF0FB6F894B4
:1057B000A8958091600088618093600010926000DD
:1057C0000FBE08950895CF930E94AD2B0E949612AC
:1057D0000E94E22BC0E08C2F0E94D611811105C0DF
:1057E000CF5FC330C1F7CF91089581E0FCCF08951A
:1057F0000C94F72B0E943A070E94FF2A0E94940300
:1058000080E00E9417270C94F82B1F921FB61F925E
:1058100011248F939F93AF93BF9380910A038111BB
:1058200013C080918A0390918B03A0918C03B09157
:105830008D034196A11DB11D80938A0390938B0324
:10584000A0938C03B0938D03BF91AF919F918F91E3
:105850001F901FBE1F90189582E084BD93E095BDF8
:105860009AEF97BD80936E0008952FB7F8948091BA
:105870008A0390918B03A0918C03B0918D032FBF6D
:105880000895CF93DF9300D000D0CDB7DEB78FB7A8
:10589000F89420918A0330918B0340918C035091AE
:1058A0008D0329833A834B835C838FBF69817A811F
:1058B0008B819C810F900F900F900F90DF91CF9173
:1058C00008959C014FB7F89480918A0390918B03BF
:1058D000A0918C03B0918D034FBF821B930B089551
:1058E0000F931F93CF93DF9300D000D0CDB7DEB7D7
:1058F000462F572FBC012FB7F89480918A039091BF
:105900008B03A0918C03B0918D032FBF8C019D015F
:10591000041B150B260B370BC901B8010F900F9014
:105920000F900F90DF91CF911F910F910895789470
:105930001F921FB61F9211248F939F93AF93BF9313
:1059400080918A0390918B03A0918C03B0918D0379
:105950000196A11DB11D80938A0390938B03A093A0
:105960008C03B0938D03BF91AF919F918F911F9046
:105970001FBE1F90189587E797E7909301088093C3
:10598000000888E19AE00FB6F894A895809360002B
:105990000FBE90936000FFCF90933902809338023E
:1059A000089580911603089590919203943031F5F3
:1059B00080930B0360930C0370930D0382E080933C
:1059C000E9008FEF9091E800815095FD06C095EDBC
:1059D0009A95F1F700008111F5CF8091E80085FFDD
:1059E0000DC050E040E063E070E08BE093E00E9487
:1059F000E22E8091E8008E778093E8000895BC0144
:105A000084E00C94D42CBC0183E00C94D42C22E0D0
:105A10002093E9002FEF3091E800215035FD06C0BA
:105A200035ED3A95F1F700002111F5CF2091E8000E
:105A300025FF0BC050E040E066E070E00E94E22EDF
:105A40008091E8008E778093E8000895CF93DF93EC
:105A5000D82FC92F81E08093E9008FEF9091E80063
:105A6000815095FD06C095ED9A95F1F700008111E2
:105A7000F5CF8091E80085FF16C050E040E068E077
:105A800070E08D2F9C2F0E94E22E8091E8008E778F
:105A90008093E80088E0ED2FFC2FAEE0B3E00190AA
:105AA0000D928A95E1F7DF91CF910895809191034E
:105AB000811109C00E946A300E94C7308091E200C3
:105AC00084608093E20008951092910308950895F0
:105AD0000895089542E061EC81E00E94E62F42E2E1
